{
  "contractName": "Greeter",
  "abi": [
    {
      "constant": true,
      "inputs": [],
      "name": "greetCounter",
      "outputs": [
        {
          "name": "",
          "type": "uint256"
        }
      ],
      "payable": false,
      "stateMutability": "view",
      "type": "function",
      "signature": "0x696a8613"
    },
    {
      "constant": false,
      "inputs": [],
      "name": "greet",
      "outputs": [
        {
          "name": "message",
          "type": "string"
        }
      ],
      "payable": false,
      "stateMutability": "nonpayable",
      "type": "function",
      "signature": "0xcfae3217"
    }
  ],
  "bytecode": "0x608060405234801561001057600080fd5b5061018c806100206000396000f30060806040526004361061004c576000357c0100000000000000000000000000000000000000000000000000000000900463ffffffff168063696a861314610051578063cfae32171461007c575b600080fd5b34801561005d57600080fd5b5061006661010c565b6040518082815260200191505060405180910390f35b34801561008857600080fd5b50610091610112565b6040518080602001828103825283818151815260200191508051906020019080838360005b838110156100d15780820151818401526020810190506100b6565b50505050905090810190601f1680156100fe5780820380516001836020036101000a031916815260200191505b509250505060405180910390f35b60005481565b606060008081548092919060010191905055506040805190810160405280600f81526020017f48656c6c6f2c204554482e5255485200000000000000000000000000000000008152509050905600a165627a7a72305820be3500cc3ebbeb2522b2a7835351b2b661e0c66d2beb79d0a7f62db56bdaab7e0029",
  "source": "pragma solidity ^0.4.23;\r\n\r\ncontract Greeter {\r\n    uint256 public greetCounter;\r\n\r\n    function greet() public returns (string message) {\r\n        greetCounter++;\r\n        return \"Hello, ETH.RUHR\";\r\n    }\r\n}",
  "sourcePath": "C:/Users/fabia/projects/ethruhr/crowdsale/packages/greeter/contracts/Greeter.sol",
  "compiler": {
    "name": "solc",
    "version": "0.4.25+commit.59dbf8f1.Emscripten.clang"
  },
  "schemaVersion": "3.0.0-beta.1",
  "updatedAt": "2018-10-16T11:02:17.183Z"
}