{
  "contractName": "RuhrCrowdsale",
  "abi": [
    {
      "constant": true,
      "inputs": [],
      "name": "hasClosed",
      "outputs": [
        {
          "name": "",
          "type": "bool"
        }
      ],
      "payable": false,
      "stateMutability": "view",
      "type": "function"
    },
    {
      "constant": true,
      "inputs": [],
      "name": "rate",
      "outputs": [
        {
          "name": "",
          "type": "uint256"
        }
      ],
      "payable": false,
      "stateMutability": "view",
      "type": "function"
    },
    {
      "constant": true,
      "inputs": [],
      "name": "cap",
      "outputs": [
        {
          "name": "",
          "type": "uint256"
        }
      ],
      "payable": false,
      "stateMutability": "view",
      "type": "function"
    },
    {
      "constant": true,
      "inputs": [],
      "name": "weiRaised",
      "outputs": [
        {
          "name": "",
          "type": "uint256"
        }
      ],
      "payable": false,
      "stateMutability": "view",
      "type": "function"
    },
    {
      "constant": true,
      "inputs": [],
      "name": "isOpen",
      "outputs": [
        {
          "name": "",
          "type": "bool"
        }
      ],
      "payable": false,
      "stateMutability": "view",
      "type": "function"
    },
    {
      "constant": true,
      "inputs": [],
      "name": "closingTime",
      "outputs": [
        {
          "name": "",
          "type": "uint256"
        }
      ],
      "payable": false,
      "stateMutability": "view",
      "type": "function"
    },
    {
      "constant": true,
      "inputs": [],
      "name": "capReached",
      "outputs": [
        {
          "name": "",
          "type": "bool"
        }
      ],
      "payable": false,
      "stateMutability": "view",
      "type": "function"
    },
    {
      "constant": true,
      "inputs": [],
      "name": "wallet",
      "outputs": [
        {
          "name": "",
          "type": "address"
        }
      ],
      "payable": false,
      "stateMutability": "view",
      "type": "function"
    },
    {
      "constant": true,
      "inputs": [],
      "name": "openingTime",
      "outputs": [
        {
          "name": "",
          "type": "uint256"
        }
      ],
      "payable": false,
      "stateMutability": "view",
      "type": "function"
    },
    {
      "constant": false,
      "inputs": [
        {
          "name": "beneficiary",
          "type": "address"
        }
      ],
      "name": "buyTokens",
      "outputs": [],
      "payable": true,
      "stateMutability": "payable",
      "type": "function"
    },
    {
      "constant": true,
      "inputs": [],
      "name": "token",
      "outputs": [
        {
          "name": "",
          "type": "address"
        }
      ],
      "payable": false,
      "stateMutability": "view",
      "type": "function"
    },
    {
      "inputs": [
        {
          "name": "rate",
          "type": "uint256"
        },
        {
          "name": "wallet",
          "type": "address"
        },
        {
          "name": "token",
          "type": "address"
        },
        {
          "name": "cap",
          "type": "uint256"
        },
        {
          "name": "openingTime",
          "type": "uint256"
        },
        {
          "name": "closingTime",
          "type": "uint256"
        }
      ],
      "payable": false,
      "stateMutability": "nonpayable",
      "type": "constructor"
    },
    {
      "payable": true,
      "stateMutability": "payable",
      "type": "fallback"
    },
    {
      "anonymous": false,
      "inputs": [
        {
          "indexed": true,
          "name": "purchaser",
          "type": "address"
        },
        {
          "indexed": true,
          "name": "beneficiary",
          "type": "address"
        },
        {
          "indexed": false,
          "name": "value",
          "type": "uint256"
        },
        {
          "indexed": false,
          "name": "amount",
          "type": "uint256"
        }
      ],
      "name": "TokensPurchased",
      "type": "event"
    }
  ],
  "bytecode": "0x608060405234801561001057600080fd5b5060405160c08061097883398101806040528101908080519060200190929190805190602001909291908051906020019092919080519060200190929190805190602001909291908051906020019092919050505081818488888860008311151561007a57600080fd5b600073ffffffffffffffffffffffffffffffffffffffff168273ffffffffffffffffffffffffffffffffffffffff16141515156100b657600080fd5b600073ffffffffffffffffffffffffffffffffffffffff168173ffffffffffffffffffffffffffffffffffffffff16141515156100f257600080fd5b8260028190555081600160006101000a81548173ffffffffffffffffffffffffffffffffffffffff021916908373ffffffffffffffffffffffffffffffffffffffff160217905550806000806101000a81548173ffffffffffffffffffffffffffffffffffffffff021916908373ffffffffffffffffffffffffffffffffffffffff16021790555050505060008111151561018c57600080fd5b80600481905550504282101515156101a357600080fd5b8181101515156101b257600080fd5b816005819055508060068190555050505050505050506107a1806101d76000396000f3006080604052600436106100af576000357c0100000000000000000000000000000000000000000000000000000000900463ffffffff1680631515bc2b146100ba5780632c4e722e146100e9578063355274ea146101145780634042b66f1461013f57806347535d7b1461016a5780634b6753bc146101995780634f935945146101c4578063521eb273146101f3578063b7a8807c1461024a578063ec8ac4d814610275578063fc0c546a146102ab575b6100b833610302565b005b3480156100c657600080fd5b506100cf6103d0565b604051808215151515815260200191505060405180910390f35b3480156100f557600080fd5b506100fe6103dc565b6040518082815260200191505060405180910390f35b34801561012057600080fd5b506101296103e6565b6040518082815260200191505060405180910390f35b34801561014b57600080fd5b506101546103f0565b6040518082815260200191505060405180910390f35b34801561017657600080fd5b5061017f6103fa565b604051808215151515815260200191505060405180910390f35b3480156101a557600080fd5b506101ae610415565b6040518082815260200191505060405180910390f35b3480156101d057600080fd5b506101d961041f565b604051808215151515815260200191505060405180910390f35b3480156101ff57600080fd5b50610208610433565b604051808273ffffffffffffffffffffffffffffffffffffffff1673ffffffffffffffffffffffffffffffffffffffff16815260200191505060405180910390f35b34801561025657600080fd5b5061025f61045d565b6040518082815260200191505060405180910390f35b6102a9600480360381019080803573ffffffffffffffffffffffffffffffffffffffff169060200190929190505050610302565b005b3480156102b757600080fd5b506102c0610467565b604051808273ffffffffffffffffffffffffffffffffffffffff1673ffffffffffffffffffffffffffffffffffffffff16815260200191505060405180910390f35b6000803491506103128383610490565b61031b826104b1565b9050610332826003546104cf90919063ffffffff16565b60038190555061034283826104f0565b8273ffffffffffffffffffffffffffffffffffffffff163373ffffffffffffffffffffffffffffffffffffffff167f6faf93231a456e552dbc9961f58d9713ee4f2e69d15f1975b050ef0911053a7b8484604051808381526020018281526020019250505060405180910390a36103b983836104fe565b6103c1610502565b6103cb838361056d565b505050565b60006006544211905090565b6000600254905090565b6000600454905090565b6000600354905090565b6000600554421015801561041057506006544211155b905090565b6000600654905090565b600060045461042c6103f0565b1015905090565b6000600160009054906101000a900473ffffffffffffffffffffffffffffffffffffffff16905090565b6000600554905090565b60008060009054906101000a900473ffffffffffffffffffffffffffffffffffffffff16905090565b6104986103fa565b15156104a357600080fd5b6104ad8282610571565b5050565b60006104c8600254836105a990919063ffffffff16565b9050919050565b60008082840190508381101515156104e657600080fd5b8091505092915050565b6104fa82826105e7565b5050565b5050565b600160009054906101000a900473ffffffffffffffffffffffffffffffffffffffff1673ffffffffffffffffffffffffffffffffffffffff166108fc349081150290604051600060405180830381858888f1935050505015801561056a573d6000803e3d6000fd5b50565b5050565b61057b8282610637565b6004546105988261058a6103f0565b6104cf90919063ffffffff16565b111515156105a557600080fd5b5050565b60008060008414156105be57600091506105e0565b82840290508284828115156105cf57fe5b041415156105dc57600080fd5b8091505b5092915050565b61063382826000809054906101000a900473ffffffffffffffffffffffffffffffffffffffff1673ffffffffffffffffffffffffffffffffffffffff166106879092919063ffffffff16565b5050565b600073ffffffffffffffffffffffffffffffffffffffff168273ffffffffffffffffffffffffffffffffffffffff161415151561067357600080fd5b6000811415151561068357600080fd5b5050565b8273ffffffffffffffffffffffffffffffffffffffff1663a9059cbb83836040518363ffffffff167c0100000000000000000000000000000000000000000000000000000000028152600401808373ffffffffffffffffffffffffffffffffffffffff1673ffffffffffffffffffffffffffffffffffffffff16815260200182815260200192505050602060405180830381600087803b15801561072a57600080fd5b505af115801561073e573d6000803e3d6000fd5b505050506040513d602081101561075457600080fd5b8101908080519060200190929190505050151561077057600080fd5b5050505600a165627a7a723058202626c1725ab4f6c3de0588200be7235d40eb0f14deabfe548138dcc185cd3ba60029",
  "source": "pragma solidity ^0.4.23;\r\n\r\nimport \"openzeppelin-solidity/contracts/token/ERC20/ERC20.sol\";\r\nimport \"openzeppelin-solidity/contracts/crowdsale/validation/CappedCrowdsale.sol\";\r\nimport \"openzeppelin-solidity/contracts/crowdsale/validation/TimedCrowdsale.sol\";\r\nimport \"openzeppelin-solidity/contracts/crowdsale/Crowdsale.sol\";\r\n\r\ncontract RuhrCrowdsale is Crowdsale, CappedCrowdsale, TimedCrowdsale {\r\n\r\n    constructor(\r\n        uint256 rate,         // rate, in RUHRbits\r\n        address wallet,       // wallet to send Ether\r\n        ERC20 token,          // the token\r\n        uint256 cap,          // total cap, in wei\r\n        uint256 openingTime,  // opening time in unix epoch seconds\r\n        uint256 closingTime   // closing time in unix epoch seconds\r\n    )\r\n    CappedCrowdsale(cap)\r\n    TimedCrowdsale(openingTime, closingTime)\r\n    Crowdsale(rate, wallet, token)\r\n    public\r\n    {\r\n        // nice, we just created a crowdsale that's only open\r\n        // for a certain amount of time\r\n        // and stops accepting contributions once it reaches `cap`\r\n    }\r\n}",
  "sourcePath": "C:\\Users\\fabia\\projects\\ethruhr\\crowdsale\\packages\\crowdsale\\contracts\\RuhrCrowdsale.sol",
  "compiler": {
    "name": "solc",
    "version": "0.4.25+commit.59dbf8f1.Emscripten.clang"
  },
  "schemaVersion": "3.0.0-beta.1",
  "updatedAt": "2018-10-16T22:12:10.520Z"
}